{
    "address": "0x0600BF2d42816D0Da02C086727e57DEe03115A20",
    "abi": [
        {
            "inputs": [
                {
                    "internalType": "string",
                    "name": "_version",
                    "type": "string"
                },
                {
                    "internalType": "address",
                    "name": "_marginAsset",
                    "type": "address"
                },
                {
                    "internalType": "address",
                    "name": "_addressResolver",
                    "type": "address"
                },
                {
                    "internalType": "address",
                    "name": "_marginBaseSettings",
                    "type": "address"
                },
                {
                    "internalType": "address payable",
                    "name": "_ops",
                    "type": "address"
                }
            ],
            "stateMutability": "nonpayable",
            "type": "constructor"
        },
        {
            "anonymous": false,
            "inputs": [
                {
                    "indexed": true,
                    "internalType": "address",
                    "name": "owner",
                    "type": "address"
                },
                {
                    "indexed": false,
                    "internalType": "address",
                    "name": "account",
                    "type": "address"
                }
            ],
            "name": "NewAccount",
            "type": "event"
        },
        {
            "inputs": [],
            "name": "addressResolver",
            "outputs": [
                {
                    "internalType": "address",
                    "name": "",
                    "type": "address"
                }
            ],
            "stateMutability": "view",
            "type": "function"
        },
        {
            "inputs": [],
            "name": "implementation",
            "outputs": [
                {
                    "internalType": "contract MarginBase",
                    "name": "",
                    "type": "address"
                }
            ],
            "stateMutability": "view",
            "type": "function"
        },
        {
            "inputs": [],
            "name": "marginAsset",
            "outputs": [
                {
                    "internalType": "contract IERC20",
                    "name": "",
                    "type": "address"
                }
            ],
            "stateMutability": "view",
            "type": "function"
        },
        {
            "inputs": [],
            "name": "marginBaseSettings",
            "outputs": [
                {
                    "internalType": "address",
                    "name": "",
                    "type": "address"
                }
            ],
            "stateMutability": "view",
            "type": "function"
        },
        {
            "inputs": [],
            "name": "newAccount",
            "outputs": [
                {
                    "internalType": "address",
                    "name": "",
                    "type": "address"
                }
            ],
            "stateMutability": "nonpayable",
            "type": "function"
        },
        {
            "inputs": [],
            "name": "ops",
            "outputs": [
                {
                    "internalType": "address payable",
                    "name": "",
                    "type": "address"
                }
            ],
            "stateMutability": "view",
            "type": "function"
        },
        {
            "inputs": [],
            "name": "version",
            "outputs": [
                {
                    "internalType": "string",
                    "name": "",
                    "type": "string"
                }
            ],
            "stateMutability": "view",
            "type": "function"
        }
    ],
    "transactionHash": "0x6c2aff12cb5bf67d98be943bf11e9421a850cc05f7c6ee3c317769a168b0e2d2",
    "args": [
        "1.0.0",
        "0xaA5068dC2B3AADE533d3e52C6eeaadC6a8154c57",
        "0xb08b62e1cdfd37eCCd69A9ACe67322CCF801b3A6",
        "0xA8EE338DbeB651A6483578683Fca90b8FfbdE417",
        "0xB3f5503f93d5Ef84b06993a1975B9D21B962892F"
    ],
    "numDeployments": 1,
    "solcInputHash": "b8586a1d92d66e61ca5cf7095e3e1241",
    "bytecode": "0x6101006040523480156200001257600080fd5b5060405162005ad638038062005ad683398181016040528101906200003891906200049d565b84600090805190602001906200005092919062000198565b506040516200005f9062000229565b604051809103906000f0801580156200007c573d6000803e3d6000fd5b5073ffffffffffffffffffffffffffffffffffffffff1660808173ffffffffffffffffffffffffffffffffffffffff16815250508373ffffffffffffffffffffffffffffffffffffffff1660a08173ffffffffffffffffffffffffffffffffffffffff16815250508273ffffffffffffffffffffffffffffffffffffffff1660c08173ffffffffffffffffffffffffffffffffffffffff168152505081600160006101000a81548173ffffffffffffffffffffffffffffffffffffffff021916908373ffffffffffffffffffffffffffffffffffffffff1602179055508073ffffffffffffffffffffffffffffffffffffffff1660e08173ffffffffffffffffffffffffffffffffffffffff16815250505050505050620005a8565b828054620001a69062000573565b90600052602060002090601f016020900481019282620001ca576000855562000216565b82601f10620001e557805160ff191683800117855562000216565b8280016001018555821562000216579182015b8281111562000215578251825591602001919060010190620001f8565b5b50905062000225919062000237565b5090565b614b268062000fb083390190565b5b808211156200025257600081600090555060010162000238565b5090565b6000604051905090565b600080fd5b600080fd5b600080fd5b600080fd5b6000601f19601f8301169050919050565b7f4e487b7100000000000000000000000000000000000000000000000000000000600052604160045260246000fd5b620002bf8262000274565b810181811067ffffffffffffffff82111715620002e157620002e062000285565b5b80604052505050565b6000620002f662000256565b9050620003048282620002b4565b919050565b600067ffffffffffffffff82111562000327576200032662000285565b5b620003328262000274565b9050602081019050919050565b60005b838110156200035f57808201518184015260208101905062000342565b838111156200036f576000848401525b50505050565b60006200038c620003868462000309565b620002ea565b905082815260208101848484011115620003ab57620003aa6200026f565b5b620003b88482856200033f565b509392505050565b600082601f830112620003d857620003d76200026a565b5b8151620003ea84826020860162000375565b91505092915050565b600073ffffffffffffffffffffffffffffffffffffffff82169050919050565b60006200042082620003f3565b9050919050565b620004328162000413565b81146200043e57600080fd5b50565b600081519050620004528162000427565b92915050565b60006200046582620003f3565b9050919050565b620004778162000458565b81146200048357600080fd5b50565b60008151905062000497816200046c565b92915050565b600080600080600060a08688031215620004bc57620004bb62000260565b5b600086015167ffffffffffffffff811115620004dd57620004dc62000265565b5b620004eb88828901620003c0565b9550506020620004fe8882890162000441565b9450506040620005118882890162000441565b9350506060620005248882890162000441565b9250506080620005378882890162000486565b9150509295509295909350565b7f4e487b7100000000000000000000000000000000000000000000000000000000600052602260045260246000fd5b600060028204905060018216806200058c57607f821691505b602082108103620005a257620005a162000544565b5b50919050565b60805160a05160c05160e0516109b2620005fe6000396000818161035b015261048d015260008181610156015261031701526000818161025201526102f601526000818161022e015261027c01526109b26000f3fe608060405234801561001057600080fd5b506004361061007d5760003560e01c80635c60da1b1161005b5780635c60da1b146100dc57806382689cae146100fa578063bf335e6214610118578063e70abe92146101365761007d565b806305a2ee2a1461008257806334b366f9146100a057806354fd4d50146100be575b600080fd5b61008a610154565b60405161009791906105df565b60405180910390f35b6100a8610178565b6040516100b591906105df565b60405180910390f35b6100c661019e565b6040516100d39190610693565b60405180910390f35b6100e461022c565b6040516100f19190610714565b60405180910390f35b610102610250565b60405161010f9190610750565b60405180910390f35b610120610274565b60405161012d91906105df565b60405180910390f35b61013e61048b565b60405161014b919061078c565b60405180910390f35b7f000000000000000000000000000000000000000000000000000000000000000081565b600160009054906101000a900473ffffffffffffffffffffffffffffffffffffffff1681565b600080546101ab906107d6565b80601f01602080910402602001604051908101604052809291908181526020018280546101d7906107d6565b80156102245780601f106101f957610100808354040283529160200191610224565b820191906000526020600020905b81548152906001019060200180831161020757829003601f168201915b505050505081565b7f000000000000000000000000000000000000000000000000000000000000000081565b7f000000000000000000000000000000000000000000000000000000000000000081565b6000806102d67f00000000000000000000000000000000000000000000000000000000000000006040518060400160405280601081526020017f4372656174696f6e206661696c757265000000000000000000000000000000008152506104af565b90508073ffffffffffffffffffffffffffffffffffffffff1663f8c8765e7f00000000000000000000000000000000000000000000000000000000000000007f0000000000000000000000000000000000000000000000000000000000000000600160009054906101000a900473ffffffffffffffffffffffffffffffffffffffff167f00000000000000000000000000000000000000000000000000000000000000006040518563ffffffff1660e01b81526004016103999493929190610807565b600060405180830381600087803b1580156103b357600080fd5b505af11580156103c7573d6000803e3d6000fd5b505050508073ffffffffffffffffffffffffffffffffffffffff1663f2fde38b336040518263ffffffff1660e01b815260040161040491906105df565b600060405180830381600087803b15801561041e57600080fd5b505af1158015610432573d6000803e3d6000fd5b505050503373ffffffffffffffffffffffffffffffffffffffff167f14cb25cca821184a88389fa7823ef6a4cd65897a89cbdcf5169542b8d790478b8260405161047c91906105df565b60405180910390a28091505090565b7f000000000000000000000000000000000000000000000000000000000000000081565b6000806104bb84610543565b90506037602082016000f09150600073ffffffffffffffffffffffffffffffffffffffff168273ffffffffffffffffffffffffffffffffffffffff161415839061053b576040517f08c379a00000000000000000000000000000000000000000000000000000000081526004016105329190610693565b60405180910390fd5b505092915050565b6060693d602d80600a3d3981f360b01b69363d3d373d3d3d363d7360b01b836e5af43d82803e903d91602b57fd5bf360881b604051602001610588949392919061092e565b6040516020818303038152906040529050919050565b600073ffffffffffffffffffffffffffffffffffffffff82169050919050565b60006105c98261059e565b9050919050565b6105d9816105be565b82525050565b60006020820190506105f460008301846105d0565b92915050565b600081519050919050565b600082825260208201905092915050565b60005b83811015610634578082015181840152602081019050610619565b83811115610643576000848401525b50505050565b6000601f19601f8301169050919050565b6000610665826105fa565b61066f8185610605565b935061067f818560208601610616565b61068881610649565b840191505092915050565b600060208201905081810360008301526106ad818461065a565b905092915050565b6000819050919050565b60006106da6106d56106d08461059e565b6106b5565b61059e565b9050919050565b60006106ec826106bf565b9050919050565b60006106fe826106e1565b9050919050565b61070e816106f3565b82525050565b60006020820190506107296000830184610705565b92915050565b600061073a826106e1565b9050919050565b61074a8161072f565b82525050565b60006020820190506107656000830184610741565b92915050565b60006107768261059e565b9050919050565b6107868161076b565b82525050565b60006020820190506107a1600083018461077d565b92915050565b7f4e487b7100000000000000000000000000000000000000000000000000000000600052602260045260246000fd5b600060028204905060018216806107ee57607f821691505b602082108103610801576108006107a7565b5b50919050565b600060808201905061081c60008301876105d0565b61082960208301866105d0565b61083660408301856105d0565b610843606083018461077d565b95945050505050565b60007fffffffffffffffffffff0000000000000000000000000000000000000000000082169050919050565b6000819050919050565b61089361088e8261084c565b610878565b82525050565b60008160601b9050919050565b60006108b182610899565b9050919050565b60006108c3826108a6565b9050919050565b6108db6108d6826105be565b6108b8565b82525050565b60007fffffffffffffffffffffffffffffff000000000000000000000000000000000082169050919050565b6000819050919050565b610928610923826108e1565b61090d565b82525050565b600061093a8287610882565b600a8201915061094a8286610882565b600a8201915061095a82856108ca565b60148201915061096a8284610917565b600f820191508190509594505050505056fea2646970667358221220a5ffd0c35da7e05d933149edaf3c74f780d7149e999f3785d65baab72142888c64736f6c634300080d003360806040523480156200001157600080fd5b5062000032620000266200005360201b60201c565b6200005b60201b60201c565b6001600060146101000a81548160ff0219169083151502179055506200011f565b600033905090565b60008060009054906101000a900473ffffffffffffffffffffffffffffffffffffffff169050816000806101000a81548173ffffffffffffffffffffffffffffffffffffffff021916908373ffffffffffffffffffffffffffffffffffffffff1602179055508173ffffffffffffffffffffffffffffffffffffffff168173ffffffffffffffffffffffffffffffffffffffff167f8be0079c531659141344cd1fd0a4f28419497f9722a3daafe3b4186f6b6457e060405160405180910390a35050565b6149f7806200012f6000396000f3fe608060405234801561001057600080fd5b506004361061018e5760003560e01c80638da5cb5b116100de578063b6b55f2511610097578063e70abe9211610071578063e70abe9214610456578063ea1d5ae614610474578063f2fde38b146104a4578063f8c8765e146104c05761018e565b8063b6b55f25146103ec578063ce459e6514610408578063e07c09cd146104265761018e565b80638da5cb5b1461031157806394e05b2c1461032f57806394f6113414610360578063a48903371461037c578063a85c38ef1461039a578063ab3ceafa146103ce5761018e565b8063514fcac71161014b578063715018a611610125578063715018a6146102c15780638129fc1c146102cb57806382689cae146102d55780638322fff2146102f35761018e565b8063514fcac714610269578063573ea5751461028557806361383805146102a35761018e565b80630af5c2d014610193578063163de5e5146101c55780632e1a7d4d146101e3578063325314e5146101ff57806334b366f91461022f578063428952af1461024d575b600080fd5b6101ad60048036038101906101a891906130ee565b6104dc565b6040516101bc93929190613171565b60405180910390f35b6101cd61052f565b6040516101da91906131c1565b60405180910390f35b6101fd60048036038101906101f89190613208565b610535565b005b61021960048036038101906102149190613208565b610777565b6040516102269190613235565b60405180910390f35b61023761079b565b60405161024491906132cf565b60405180910390f35b6102676004803603810190610262919061352e565b6107c1565b005b610283600480360381019061027e9190613208565b610849565b005b61028d610a1f565b60405161029a9190613598565b60405180910390f35b6102ab610ab7565b6040516102b891906131c1565b60405180910390f35b6102c9610b67565b005b6102d3610bef565b005b6102dd610cac565b6040516102ea91906135d4565b60405180910390f35b6102fb610cd2565b6040516103089190613610565b60405180910390f35b610319610cea565b6040516103269190613610565b60405180910390f35b61034960048036038101906103449190613208565b610d13565b6040516103579291906136c2565b60405180910390f35b61037a60048036038101906103759190613208565b610d9f565b005b610384611095565b60405161039191906131c1565b60405180910390f35b6103b460048036038101906103af9190613208565b61109b565b6040516103c5959493929190613701565b60405180910390f35b6103d66110d1565b6040516103e391906131c1565b60405180910390f35b61040660048036038101906104019190613208565b6110de565b005b6104106112cd565b60405161041d9190613872565b60405180910390f35b610440600480360381019061043b9190613894565b61142e565b60405161044d91906131c1565b60405180910390f35b61045e6116f5565b60405161046b9190613610565b60405180910390f35b61048e60048036038101906104899190613208565b61171b565b60405161049b91906138fb565b60405180910390f35b6104be60048036038101906104b99190613942565b61191e565b005b6104da60048036038101906104d5919061399b565b611a15565b005b60086020528060005260406000206000915090508060000154908060010160009054906101000a90046fffffffffffffffffffffffffffffffff16908060010160109054906101000a9004600f0b905083565b600a5481565b61053d611d20565b73ffffffffffffffffffffffffffffffffffffffff1661055b610cea565b73ffffffffffffffffffffffffffffffffffffffff16146105b1576040517f08c379a00000000000000000000000000000000000000000000000000000000081526004016105a890613a5f565b60405180910390fd5b600081036105eb576040517f46f1397d00000000000000000000000000000000000000000000000000000000815260040160405180910390fd5b6105f3610ab7565b81111561064057610602610ab7565b816040517f3cb0273a000000000000000000000000000000000000000000000000000000008152600401610637929190613a7f565b60405180910390fd5b600560009054906101000a900473ffffffffffffffffffffffffffffffffffffffff1673ffffffffffffffffffffffffffffffffffffffff1663a9059cbb610686610cea565b836040518363ffffffff1660e01b81526004016106a4929190613aa8565b6020604051808303816000875af11580156106c3573d6000803e3d6000fd5b505050506040513d601f19601f820116820180604052508101906106e79190613ae6565b610726576040517f08c379a000000000000000000000000000000000000000000000000000000000815260040161071d90613b5f565b60405180910390fd5b3373ffffffffffffffffffffffffffffffffffffffff167f884edad9ce6fa2440d8a54cc123490eb96d2768479d49ff9c7366125a94243648260405161076c91906131c1565b60405180910390a250565b6007818154811061078757600080fd5b906000526020600020016000915090505481565b600260009054906101000a900473ffffffffffffffffffffffffffffffffffffffff1681565b6107c9611d20565b73ffffffffffffffffffffffffffffffffffffffff166107e7610cea565b73ffffffffffffffffffffffffffffffffffffffff161461083d576040517f08c379a000000000000000000000000000000000000000000000000000000000815260040161083490613a5f565b60405180910390fd5b61084681611d28565b50565b610851611d20565b73ffffffffffffffffffffffffffffffffffffffff1661086f610cea565b73ffffffffffffffffffffffffffffffffffffffff16146108c5576040517f08c379a00000000000000000000000000000000000000000000000000000000081526004016108bc90613a5f565b60405180910390fd5b6000600960008381526020019081526020016000206040518060a001604052908160008201548152602001600182015481526020016002820154815260200160038201548152602001600482015481525050905060008160200151131561094c576109338160200151612150565b600660008282546109449190613bae565b925050819055505b600160009054906101000a900473ffffffffffffffffffffffffffffffffffffffff1673ffffffffffffffffffffffffffffffffffffffff1663ee8ca3b582608001516040518263ffffffff1660e01b81526004016109ab9190613235565b600060405180830381600087803b1580156109c557600080fd5b505af11580156109d9573d6000803e3d6000fd5b5050505060096000838152602001908152602001600020600080820160009055600182016000905560028201600090556003820160009055600482016000905550505050565b6000600160009054906101000a900473ffffffffffffffffffffffffffffffffffffffff1673ffffffffffffffffffffffffffffffffffffffff1663573ea5756040518163ffffffff1660e01b8152600401602060405180830381865afa158015610a8e573d6000803e3d6000fd5b505050506040513d601f19601f82011682018060405250810190610ab29190613bf7565b905090565b6000600654600560009054906101000a900473ffffffffffffffffffffffffffffffffffffffff1673ffffffffffffffffffffffffffffffffffffffff166370a08231306040518263ffffffff1660e01b8152600401610b179190613610565b602060405180830381865afa158015610b34573d6000803e3d6000fd5b505050506040513d601f19601f82011682018060405250810190610b589190613c39565b610b629190613bae565b905090565b610b6f611d20565b73ffffffffffffffffffffffffffffffffffffffff16610b8d610cea565b73ffffffffffffffffffffffffffffffffffffffff1614610be3576040517f08c379a0000000000000000000000000000000000000000000000000000000008152600401610bda90613a5f565b60405180910390fd5b610bed6000612171565b565b600060149054906101000a900460ff1615610c3f576040517f08c379a0000000000000000000000000000000000000000000000000000000008152600401610c3690613cb2565b60405180910390fd5b600060159054906101000a900460ff1615610c8f576040517f08c379a0000000000000000000000000000000000000000000000000000000008152600401610c8690613d1e565b60405180910390fd5b6001600060156101000a81548160ff021916908315150217905550565b600560009054906101000a900473ffffffffffffffffffffffffffffffffffffffff1681565b73eeeeeeeeeeeeeeeeeeeeeeeeeeeeeeeeeeeeeeee81565b60008060009054906101000a900473ffffffffffffffffffffffffffffffffffffffff16905090565b60006060610d208361171b565b91506394f6113460e01b83604051602401610d3b91906131c1565b604051602081830303815290604052907bffffffffffffffffffffffffffffffffffffffffffffffffffffffff19166020820180517bffffffffffffffffffffffffffffffffffffffffffffffffffffffff83818316178352505050509050915091565b600160009054906101000a900473ffffffffffffffffffffffffffffffffffffffff1673ffffffffffffffffffffffffffffffffffffffff163373ffffffffffffffffffffffffffffffffffffffff1614610e2f576040517f08c379a0000000000000000000000000000000000000000000000000000000008152600401610e2690613d8a565b60405180910390fd5b610e388161171b565b610e77576040517f08c379a0000000000000000000000000000000000000000000000000000000008152600401610e6e90613df6565b60405180910390fd5b6000600960008381526020019081526020016000206040518060a0016040529081600082015481526020016001820154815260200160028201548152602001600382015481526020016004820154815250509050600081602001511315610efe57610ee58160200151612150565b60066000828254610ef69190613bae565b925050819055505b6000600167ffffffffffffffff811115610f1b57610f1a613300565b5b604051908082528060200260200182016040528015610f5457816020015b610f4161303e565b815260200190600190039081610f395790505b50905060405180608001604052808360000151815260200183602001518152602001836040015181526020016000151581525081600081518110610f9b57610f9a613e16565b5b60200260200101819052506009600084815260200190815260200160002060008082016000905560018201600090556002820160009055600382016000905560048201600090555050610fed81611d28565b600080600160009054906101000a900473ffffffffffffffffffffffffffffffffffffffff1673ffffffffffffffffffffffffffffffffffffffff1663b810c6366040518163ffffffff1660e01b81526004016040805180830381865afa15801561105c573d6000803e3d6000fd5b505050506040513d601f19601f820116820180604052508101906110809190613e5a565b9150915061108e8282612235565b5050505050565b60065481565b60096020528060005260406000206000915090508060000154908060010154908060020154908060030154908060040154905085565b6000600780549050905090565b6110e6611d20565b73ffffffffffffffffffffffffffffffffffffffff16611104610cea565b73ffffffffffffffffffffffffffffffffffffffff161461115a576040517f08c379a000000000000000000000000000000000000000000000000000000000815260040161115190613a5f565b60405180910390fd5b60008103611194576040517f46f1397d00000000000000000000000000000000000000000000000000000000815260040160405180910390fd5b600560009054906101000a900473ffffffffffffffffffffffffffffffffffffffff1673ffffffffffffffffffffffffffffffffffffffff166323b872dd6111da610cea565b30846040518463ffffffff1660e01b81526004016111fa93929190613e9a565b6020604051808303816000875af1158015611219573d6000803e3d6000fd5b505050506040513d601f19601f8201168201806040525081019061123d9190613ae6565b61127c576040517f08c379a000000000000000000000000000000000000000000000000000000000815260040161127390613f1d565b60405180910390fd5b3373ffffffffffffffffffffffffffffffffffffffff167fe1fffcc4923d04b559f4d29a8bfc6cda04eb5b0d3c460751c2402c5c5cc9109c826040516112c291906131c1565b60405180910390a250565b6060600060078054905067ffffffffffffffff8111156112f0576112ef613300565b5b60405190808252806020026020018201604052801561132957816020015b61131661306b565b81526020019060019003908161130e5790505b50905060005b6007805490508161ffff161015611426576008600060078361ffff168154811061135c5761135b613e16565b5b90600052602060002001548152602001908152602001600020604051806060016040529081600082015481526020016001820160009054906101000a90046fffffffffffffffffffffffffffffffff166fffffffffffffffffffffffffffffffff166fffffffffffffffffffffffffffffffff1681526020016001820160109054906101000a9004600f0b600f0b600f0b81525050828261ffff168151811061140857611407613e16565b5b6020026020010181905250808061141e90613f4b565b91505061132f565b508091505090565b6000611438611d20565b73ffffffffffffffffffffffffffffffffffffffff16611456610cea565b73ffffffffffffffffffffffffffffffffffffffff16146114ac576040517f08c379a00000000000000000000000000000000000000000000000000000000081526004016114a390613a5f565b60405180910390fd5b600084131561153c576114bd610ab7565b6114c685612150565b111561151a576114d4610ab7565b6114dd85612150565b6040517f3cb0273a000000000000000000000000000000000000000000000000000000008152600401611511929190613a7f565b60405180910390fd5b61152384612150565b600660008282546115349190613f75565b925050819055505b6000600160009054906101000a900473ffffffffffffffffffffffffffffffffffffffff1673ffffffffffffffffffffffffffffffffffffffff16638b92696a306394f6113460e01b306394e05b2c60e01b600a546040516024016115a191906131c1565b604051602081830303815290604052907bffffffffffffffffffffffffffffffffffffffffffffffffffffffff19166020820180517bffffffffffffffffffffffffffffffffffffffffffffffffffffffff83818316178352505050506040518563ffffffff1660e01b815260040161161d9493929190614006565b6020604051808303816000875af115801561163c573d6000803e3d6000fd5b505050506040513d601f19601f820116820180604052508101906116609190614067565b90506040518060a001604052808781526020018681526020018581526020018481526020018281525060096000600a5481526020019081526020016000206000820151816000015560208201518160010155604082015181600201556060820151816003015560808201518160040155905050600a60008154809291906116e690614094565b91905055915050949350505050565b600160009054906101000a900473ffffffffffffffffffffffffffffffffffffffff1681565b600080600960008481526020019081526020016000206040518060a0016040529081600082015481526020016001820154815260200160028201548152602001600382015481526020016004820154815250509050600061177f826000015161234c565b73ffffffffffffffffffffffffffffffffffffffff1663cdf456e16040518163ffffffff1660e01b8152600401602060405180830381865afa1580156117c9573d6000803e3d6000fd5b505050506040513d601f19601f820116820180604052508101906117ed9190614067565b905060006117f96123f1565b73ffffffffffffffffffffffffffffffffffffffff1663654a60ac83670de0b6b3a76400007f73555344000000000000000000000000000000000000000000000000000000006040518463ffffffff1660e01b815260040161185d93929190614117565b602060405180830381865afa15801561187a573d6000803e3d6000fd5b505050506040513d601f19601f8201168201806040525081019061189e9190613c39565b90506000836040015113156118bf5782606001518111159350505050611919565b6000836040015112156118de5782606001518110159350505050611919565b6040517f08c379a00000000000000000000000000000000000000000000000000000000081526004016119109061419a565b60405180910390fd5b919050565b611926611d20565b73ffffffffffffffffffffffffffffffffffffffff16611944610cea565b73ffffffffffffffffffffffffffffffffffffffff161461199a576040517f08c379a000000000000000000000000000000000000000000000000000000000815260040161199190613a5f565b60405180910390fd5b600073ffffffffffffffffffffffffffffffffffffffff168173ffffffffffffffffffffffffffffffffffffffff1603611a09576040517f08c379a0000000000000000000000000000000000000000000000000000000008152600401611a009061422c565b60405180910390fd5b611a1281612171565b50565b600060149054906101000a900460ff1615611a65576040517f08c379a0000000000000000000000000000000000000000000000000000000008152600401611a5c90613cb2565b60405180910390fd5b600060159054906101000a900460ff1615611ab5576040517f08c379a0000000000000000000000000000000000000000000000000000000008152600401611aac90613d1e565b60405180910390fd5b6001600060156101000a81548160ff02191690831515021790555083600560006101000a81548173ffffffffffffffffffffffffffffffffffffffff021916908373ffffffffffffffffffffffffffffffffffffffff16021790555082600360006101000a81548173ffffffffffffffffffffffffffffffffffffffff021916908373ffffffffffffffffffffffffffffffffffffffff160217905550600360009054906101000a900473ffffffffffffffffffffffffffffffffffffffff1673ffffffffffffffffffffffffffffffffffffffff1663dacb2d017f467574757265734d61726b65744d616e616765720000000000000000000000006040518263ffffffff1660e01b8152600401611bcd91906142be565b602060405180830381865afa158015611bea573d6000803e3d6000fd5b505050506040513d601f19601f82011682018060405250810190611c0e91906142ec565b600460006101000a81548173ffffffffffffffffffffffffffffffffffffffff021916908373ffffffffffffffffffffffffffffffffffffffff16021790555083600560006101000a81548173ffffffffffffffffffffffffffffffffffffffff021916908373ffffffffffffffffffffffffffffffffffffffff16021790555081600260006101000a81548173ffffffffffffffffffffffffffffffffffffffff021916908373ffffffffffffffffffffffffffffffffffffffff160217905550611cd933612171565b80600160006101000a81548173ffffffffffffffffffffffffffffffffffffffff021916908373ffffffffffffffffffffffffffffffffffffffff16021790555050505050565b600033905090565b61ffff801681511115611d735780516040517f0a9fd21a000000000000000000000000000000000000000000000000000000008152600401611d6a91906131c1565b60405180910390fd5b6000805b82518161ffff161015611f2a57828161ffff1681518110611d9b57611d9a613e16565b5b60200260200101516060015115611de957611dd7838261ffff1681518110611dc657611dc5613e16565b5b602002602001015160000151612492565b82611de29190613f75565b9150611f17565b6000838261ffff1681518110611e0257611e01613e16565b5b6020026020010151602001511215611e9757611e85838261ffff1681518110611e2e57611e2d613e16565b5b602002602001015160200151848361ffff1681518110611e5157611e50613e16565b5b602002602001015160400151858461ffff1681518110611e7457611e73613e16565b5b602002602001015160000151612608565b82611e909190613f75565b9150611f16565b611f08838261ffff1681518110611eb157611eb0613e16565b5b602002602001015160200151848361ffff1681518110611ed457611ed3613e16565b5b602002602001015160400151858461ffff1681518110611ef757611ef6613e16565b5b6020026020010151600001516127c9565b82611f139190613f75565b91505b5b8080611f2290613f4b565b915050611d77565b50600081111561214c57600560009054906101000a900473ffffffffffffffffffffffffffffffffffffffff1673ffffffffffffffffffffffffffffffffffffffff1663a9059cbb600260009054906101000a900473ffffffffffffffffffffffffffffffffffffffff1673ffffffffffffffffffffffffffffffffffffffff166361d027b36040518163ffffffff1660e01b8152600401602060405180830381865afa158015611fdf573d6000803e3d6000fd5b505050506040513d601f19601f8201168201806040525081019061200391906142ec565b612710600260009054906101000a900473ffffffffffffffffffffffffffffffffffffffff1673ffffffffffffffffffffffffffffffffffffffff16639ee8e1986040518163ffffffff1660e01b8152600401602060405180830381865afa158015612073573d6000803e3d6000fd5b505050506040513d601f19601f820116820180604052508101906120979190613c39565b856120a29190614319565b6120ac91906143a2565b6040518363ffffffff1660e01b81526004016120c9929190613aa8565b6020604051808303816000875af11580156120e8573d6000803e3d6000fd5b505050506040513d601f19601f8201168201806040525081019061210c9190613ae6565b61214b576040517f08c379a00000000000000000000000000000000000000000000000000000000081526004016121429061441f565b60405180910390fd5b5b5050565b600080821261215f578161216a565b816121699061443f565b5b9050919050565b60008060009054906101000a900473ffffffffffffffffffffffffffffffffffffffff169050816000806101000a81548173ffffffffffffffffffffffffffffffffffffffff021916908373ffffffffffffffffffffffffffffffffffffffff1602179055508173ffffffffffffffffffffffffffffffffffffffff168173ffffffffffffffffffffffffffffffffffffffff167f8be0079c531659141344cd1fd0a4f28419497f9722a3daafe3b4186f6b6457e060405160405180910390a35050565b73eeeeeeeeeeeeeeeeeeeeeeeeeeeeeeeeeeeeeeee73ffffffffffffffffffffffffffffffffffffffff168173ffffffffffffffffffffffffffffffffffffffff1603612335576000612286610a1f565b73ffffffffffffffffffffffffffffffffffffffff16836040516122a9906144b8565b60006040518083038185875af1925050503d80600081146122e6576040519150601f19603f3d011682016040523d82523d6000602084013e6122eb565b606091505b505090508061232f576040517f08c379a000000000000000000000000000000000000000000000000000000000815260040161232690614519565b60405180910390fd5b50612348565b61234781612341610a1f565b846129e9565b5b5050565b6000600460009054906101000a900473ffffffffffffffffffffffffffffffffffffffff1673ffffffffffffffffffffffffffffffffffffffff1663e63bfadb836040518263ffffffff1660e01b81526004016123a99190613235565b602060405180830381865afa1580156123c6573d6000803e3d6000fd5b505050506040513d601f19601f820116820180604052508101906123ea91906142ec565b9050919050565b6000600360009054906101000a900473ffffffffffffffffffffffffffffffffffffffff1673ffffffffffffffffffffffffffffffffffffffff1663dacb2d016040518163ffffffff1660e01b815260040161244c906145d1565b602060405180830381865afa158015612469573d6000803e3d6000fd5b505050506040513d601f19601f8201168201806040525081019061248d91906142ec565b905090565b600061249d82612a6f565b60006124a88361234c565b90508073ffffffffffffffffffffffffffffffffffffffff1663c393d0e36040518163ffffffff1660e01b8152600401600060405180830381600087803b1580156124f257600080fd5b505af1158015612506573d6000803e3d6000fd5b5050505060008173ffffffffffffffffffffffffffffffffffffffff166355f57510306040518263ffffffff1660e01b81526004016125459190613610565b60a060405180830381865afa158015612562573d6000803e3d6000fd5b505050506040513d601f19601f820116820180604052508101906125869190614695565b505092505050806fffffffffffffffffffffffffffffffff1692508173ffffffffffffffffffffffffffffffffffffffff16635a1cbd2b6040518163ffffffff1660e01b8152600401600060405180830381600087803b1580156125e957600080fd5b505af11580156125fd573d6000803e3d6000fd5b505050505050919050565b6000806126148361234c565b905061261f85612150565b9150600084146126b7578073ffffffffffffffffffffffffffffffffffffffff1663a28a2bc0857f4b57454e544100000000000000000000000000000000000000000000000000006040518363ffffffff1660e01b8152600401612684929190614710565b600060405180830381600087803b15801561269e57600080fd5b505af11580156126b2573d6000803e3d6000fd5b505050505b8073ffffffffffffffffffffffffffffffffffffffff166388a3c848866040518263ffffffff1660e01b81526004016126f09190614739565b600060405180830381600087803b15801561270a57600080fd5b505af115801561271e573d6000803e3d6000fd5b505050506000808273ffffffffffffffffffffffffffffffffffffffff166355f57510306040518263ffffffff1660e01b815260040161275e9190613610565b60a060405180830381865afa15801561277b573d6000803e3d6000fd5b505050506040513d601f19601f8201168201806040525081019061279f9190614695565b945050935050506127b285838386612c08565b846127bd9190613f75565b93505050509392505050565b6000806127d58361234c565b905060008513156128ac576127e985612150565b91506127f3610ab7565b82111561284057612802610ab7565b826040517f3cb0273a000000000000000000000000000000000000000000000000000000008152600401612837929190613a7f565b60405180910390fd5b8073ffffffffffffffffffffffffffffffffffffffff166388a3c848866040518263ffffffff1660e01b81526004016128799190614739565b600060405180830381600087803b15801561289357600080fd5b505af11580156128a7573d6000803e3d6000fd5b505050505b60008414612942578073ffffffffffffffffffffffffffffffffffffffff1663a28a2bc0857f4b57454e544100000000000000000000000000000000000000000000000000006040518363ffffffff1660e01b815260040161290f929190614710565b600060405180830381600087803b15801561292957600080fd5b505af115801561293d573d6000803e3d6000fd5b505050505b6000808273ffffffffffffffffffffffffffffffffffffffff166355f57510306040518263ffffffff1660e01b815260040161297e9190613610565b60a060405180830381865afa15801561299b573d6000803e3d6000fd5b505050506040513d601f19601f820116820180604052508101906129bf9190614695565b945050935050506129d285838386612c08565b846129dd9190613f75565b93505050509392505050565b612a6a8363a9059cbb60e01b8484604051602401612a08929190613aa8565b604051602081830303815290604052907bffffffffffffffffffffffffffffffffffffffffffffffffffffffff19166020820180517bffffffffffffffffffffffffffffffffffffffffffffffffffffffff8381831617835250505050612dc1565b505050565b6000801b600860008381526020019081526020016000206000015403612acc57806040517f143359ab000000000000000000000000000000000000000000000000000000008152600401612ac39190613235565b60405180910390fd5b600860008281526020019081526020016000206000808201600090556001820160006101000a8154906fffffffffffffffffffffffffffffffff02191690556001820160106101000a8154906fffffffffffffffffffffffffffffffff021916905550506000600780549050905060005b818161ffff161015612bdb578260078261ffff1681548110612b6257612b61613e16565b5b906000526020600020015403612bc8576007600183612b819190613bae565b81548110612b9257612b91613e16565b5b906000526020600020015460078261ffff1681548110612bb557612bb4613e16565b5b9060005260206000200181905550612bdb565b8080612bd390613f4b565b915050612b3d565b506007805480612bee57612bed614754565b5b600190038181906000526020600020016000905590555050565b60008083600f0b03612c9757612c1d85612a6f565b836fffffffffffffffffffffffffffffffff1690508173ffffffffffffffffffffffffffffffffffffffff16635a1cbd2b6040518163ffffffff1660e01b8152600401600060405180830381600087803b158015612c7a57600080fd5b505af1158015612c8e573d6000803e3d6000fd5b50505050612db9565b60006040518060600160405280878152602001866fffffffffffffffffffffffffffffffff16815260200185600f0b81525090506000801b600860008881526020019081526020016000206000015403612d155760078690806001815401808255809150506001900390600052602060002001600090919091909150555b80600860008881526020019081526020016000206000820151816000015560208201518160010160006101000a8154816fffffffffffffffffffffffffffffffff02191690836fffffffffffffffffffffffffffffffff16021790555060408201518160010160106101000a8154816fffffffffffffffffffffffffffffffff0219169083600f0b6fffffffffffffffffffffffffffffffff160217905550905050505b949350505050565b6000612e23826040518060400160405280602081526020017f5361666545524332303a206c6f772d6c6576656c2063616c6c206661696c65648152508573ffffffffffffffffffffffffffffffffffffffff16612e889092919063ffffffff16565b9050600081511115612e835780806020019051810190612e439190613ae6565b612e82576040517f08c379a0000000000000000000000000000000000000000000000000000000008152600401612e79906147f5565b60405180910390fd5b5b505050565b6060612e978484600085612ea0565b90509392505050565b606082471015612ee5576040517f08c379a0000000000000000000000000000000000000000000000000000000008152600401612edc90614887565b60405180910390fd5b612eee85612fb4565b612f2d576040517f08c379a0000000000000000000000000000000000000000000000000000000008152600401612f24906148f3565b60405180910390fd5b6000808673ffffffffffffffffffffffffffffffffffffffff168587604051612f569190614944565b60006040518083038185875af1925050503d8060008114612f93576040519150601f19603f3d011682016040523d82523d6000602084013e612f98565b606091505b5091509150612fa8828286612fd7565b92505050949350505050565b6000808273ffffffffffffffffffffffffffffffffffffffff163b119050919050565b60608315612fe757829050613037565b600083511115612ffa5782518084602001fd5b816040517f08c379a000000000000000000000000000000000000000000000000000000000815260040161302e919061499f565b60405180910390fd5b9392505050565b60405180608001604052806000801916815260200160008152602001600081526020016000151581525090565b60405180606001604052806000801916815260200160006fffffffffffffffffffffffffffffffff1681526020016000600f0b81525090565b6000604051905090565b600080fd5b600080fd5b6000819050919050565b6130cb816130b8565b81146130d657600080fd5b50565b6000813590506130e8816130c2565b92915050565b600060208284031215613104576131036130ae565b5b6000613112848285016130d9565b91505092915050565b613124816130b8565b82525050565b60006fffffffffffffffffffffffffffffffff82169050919050565b61314f8161312a565b82525050565b600081600f0b9050919050565b61316b81613155565b82525050565b6000606082019050613186600083018661311b565b6131936020830185613146565b6131a06040830184613162565b949350505050565b6000819050919050565b6131bb816131a8565b82525050565b60006020820190506131d660008301846131b2565b92915050565b6131e5816131a8565b81146131f057600080fd5b50565b600081359050613202816131dc565b92915050565b60006020828403121561321e5761321d6130ae565b5b600061322c848285016131f3565b91505092915050565b600060208201905061324a600083018461311b565b92915050565b600073ffffffffffffffffffffffffffffffffffffffff82169050919050565b6000819050919050565b600061329561329061328b84613250565b613270565b613250565b9050919050565b60006132a78261327a565b9050919050565b60006132b98261329c565b9050919050565b6132c9816132ae565b82525050565b60006020820190506132e460008301846132c0565b92915050565b600080fd5b6000601f19601f8301169050919050565b7f4e487b7100000000000000000000000000000000000000000000000000000000600052604160045260246000fd5b613338826132ef565b810181811067ffffffffffffffff8211171561335757613356613300565b5b80604052505050565b600061336a6130a4565b9050613376828261332f565b919050565b600067ffffffffffffffff82111561339657613395613300565b5b602082029050602081019050919050565b600080fd5b600080fd5b6000819050919050565b6133c4816133b1565b81146133cf57600080fd5b50565b6000813590506133e1816133bb565b92915050565b60008115159050919050565b6133fc816133e7565b811461340757600080fd5b50565b600081359050613419816133f3565b92915050565b600060808284031215613435576134346133ac565b5b61343f6080613360565b9050600061344f848285016130d9565b6000830152506020613463848285016133d2565b6020830152506040613477848285016133d2565b604083015250606061348b8482850161340a565b60608301525092915050565b60006134aa6134a58461337b565b613360565b905080838252602082019050608084028301858111156134cd576134cc6133a7565b5b835b818110156134f657806134e2888261341f565b8452602084019350506080810190506134cf565b5050509392505050565b600082601f830112613515576135146132ea565b5b8135613525848260208601613497565b91505092915050565b600060208284031215613544576135436130ae565b5b600082013567ffffffffffffffff811115613562576135616130b3565b5b61356e84828501613500565b91505092915050565b600061358282613250565b9050919050565b61359281613577565b82525050565b60006020820190506135ad6000830184613589565b92915050565b60006135be8261329c565b9050919050565b6135ce816135b3565b82525050565b60006020820190506135e960008301846135c5565b92915050565b60006135fa82613250565b9050919050565b61360a816135ef565b82525050565b60006020820190506136256000830184613601565b92915050565b613634816133e7565b82525050565b600081519050919050565b600082825260208201905092915050565b60005b83811015613674578082015181840152602081019050613659565b83811115613683576000848401525b50505050565b60006136948261363a565b61369e8185613645565b93506136ae818560208601613656565b6136b7816132ef565b840191505092915050565b60006040820190506136d7600083018561362b565b81810360208301526136e98184613689565b90509392505050565b6136fb816133b1565b82525050565b600060a082019050613716600083018861311b565b61372360208301876136f2565b61373060408301866136f2565b61373d60608301856131b2565b61374a608083018461311b565b9695505050505050565b600081519050919050565b600082825260208201905092915050565b6000819050602082019050919050565b613789816130b8565b82525050565b6137988161312a565b82525050565b6137a781613155565b82525050565b6060820160008201516137c36000850182613780565b5060208201516137d6602085018261378f565b5060408201516137e9604085018261379e565b50505050565b60006137fb83836137ad565b60608301905092915050565b6000602082019050919050565b600061381f82613754565b613829818561375f565b935061383483613770565b8060005b8381101561386557815161384c88826137ef565b975061385783613807565b925050600181019050613838565b5085935050505092915050565b6000602082019050818103600083015261388c8184613814565b905092915050565b600080600080608085870312156138ae576138ad6130ae565b5b60006138bc878288016130d9565b94505060206138cd878288016133d2565b93505060406138de878288016133d2565b92505060606138ef878288016131f3565b91505092959194509250565b6000602082019050613910600083018461362b565b92915050565b61391f816135ef565b811461392a57600080fd5b50565b60008135905061393c81613916565b92915050565b600060208284031215613958576139576130ae565b5b60006139668482850161392d565b91505092915050565b61397881613577565b811461398357600080fd5b50565b6000813590506139958161396f565b92915050565b600080600080608085870312156139b5576139b46130ae565b5b60006139c38782880161392d565b94505060206139d48782880161392d565b93505060406139e58782880161392d565b92505060606139f687828801613986565b91505092959194509250565b600082825260208201905092915050565b7f4f776e61626c653a2063616c6c6572206973206e6f7420746865206f776e6572600082015250565b6000613a49602083613a02565b9150613a5482613a13565b602082019050919050565b60006020820190508181036000830152613a7881613a3c565b9050919050565b6000604082019050613a9460008301856131b2565b613aa160208301846131b2565b9392505050565b6000604082019050613abd6000830185613601565b613aca60208301846131b2565b9392505050565b600081519050613ae0816133f3565b92915050565b600060208284031215613afc57613afb6130ae565b5b6000613b0a84828501613ad1565b91505092915050565b7f4d617267696e426173653a207769746864726177206661696c65640000000000600082015250565b6000613b49601b83613a02565b9150613b5482613b13565b602082019050919050565b60006020820190508181036000830152613b7881613b3c565b9050919050565b7f4e487b7100000000000000000000000000000000000000000000000000000000600052601160045260246000fd5b6000613bb9826131a8565b9150613bc4836131a8565b925082821015613bd757613bd6613b7f565b5b828203905092915050565b600081519050613bf18161396f565b92915050565b600060208284031215613c0d57613c0c6130ae565b5b6000613c1b84828501613be2565b91505092915050565b600081519050613c33816131dc565b92915050565b600060208284031215613c4f57613c4e6130ae565b5b6000613c5d84828501613c24565b91505092915050565b7f43616e6e6f7420696e697469616c697a6520696d706c656d656e746174696f6e600082015250565b6000613c9c602083613a02565b9150613ca782613c66565b602082019050919050565b60006020820190508181036000830152613ccb81613c8f565b9050919050565b7f416c726561647920696e697469616c697a656400000000000000000000000000600082015250565b6000613d08601383613a02565b9150613d1382613cd2565b602082019050919050565b60006020820190508181036000830152613d3781613cfb565b9050919050565b7f4f707352656164793a206f6e6c794f7073000000000000000000000000000000600082015250565b6000613d74601183613a02565b9150613d7f82613d3e565b602082019050919050565b60006020820190508181036000830152613da381613d67565b9050919050565b7f4f72646572206e6f7420726561647920666f7220657865637574696f6e000000600082015250565b6000613de0601d83613a02565b9150613deb82613daa565b602082019050919050565b60006020820190508181036000830152613e0f81613dd3565b9050919050565b7f4e487b7100000000000000000000000000000000000000000000000000000000600052603260045260246000fd5b600081519050613e5481613916565b92915050565b60008060408385031215613e7157613e706130ae565b5b6000613e7f85828601613c24565b9250506020613e9085828601613e45565b9150509250929050565b6000606082019050613eaf6000830186613601565b613ebc6020830185613601565b613ec960408301846131b2565b949350505050565b7f4d617267696e426173653a206465706f736974206661696c6564000000000000600082015250565b6000613f07601a83613a02565b9150613f1282613ed1565b602082019050919050565b60006020820190508181036000830152613f3681613efa565b9050919050565b600061ffff82169050919050565b6000613f5682613f3d565b915061ffff8203613f6a57613f69613b7f565b5b600182019050919050565b6000613f80826131a8565b9150613f8b836131a8565b9250827fffffffffffffffffffffffffffffffffffffffffffffffffffffffffffffffff03821115613fc057613fbf613b7f565b5b828201905092915050565b60007fffffffff0000000000000000000000000000000000000000000000000000000082169050919050565b61400081613fcb565b82525050565b600060808201905061401b6000830187613601565b6140286020830186613ff7565b6140356040830185613601565b81810360608301526140478184613689565b905095945050505050565b600081519050614061816130c2565b92915050565b60006020828403121561407d5761407c6130ae565b5b600061408b84828501614052565b91505092915050565b600061409f826131a8565b91507fffffffffffffffffffffffffffffffffffffffffffffffffffffffffffffffff82036140d1576140d0613b7f565b5b600182019050919050565b6000819050919050565b60006141016140fc6140f7846140dc565b613270565b6131a8565b9050919050565b614111816140e6565b82525050565b600060608201905061412c600083018661311b565b6141396020830185614108565b614146604083018461311b565b949350505050565b7f4f726465722073697a6520300000000000000000000000000000000000000000600082015250565b6000614184600c83613a02565b915061418f8261414e565b602082019050919050565b600060208201905081810360008301526141b381614177565b9050919050565b7f4f776e61626c653a206e6577206f776e657220697320746865207a65726f206160008201527f6464726573730000000000000000000000000000000000000000000000000000602082015250565b6000614216602683613a02565b9150614221826141ba565b604082019050919050565b6000602082019050818103600083015261424581614209565b9050919050565b7f4d617267696e426173653a20436f756c64206e6f74206765742046757475726560008201527f73204d61726b6574204d616e6167657200000000000000000000000000000000602082015250565b60006142a8603083613a02565b91506142b38261424c565b604082019050919050565b60006040820190506142d3600083018461311b565b81810360208301526142e48161429b565b905092915050565b600060208284031215614302576143016130ae565b5b600061431084828501613e45565b91505092915050565b6000614324826131a8565b915061432f836131a8565b9250817fffffffffffffffffffffffffffffffffffffffffffffffffffffffffffffffff048311821515161561436857614367613b7f565b5b828202905092915050565b7f4e487b7100000000000000000000000000000000000000000000000000000000600052601260045260246000fd5b60006143ad826131a8565b91506143b8836131a8565b9250826143c8576143c7614373565b5b828204905092915050565b7f4d617267696e426173653a20756e61626c6520746f2070617920666565000000600082015250565b6000614409601d83613a02565b9150614414826143d3565b602082019050919050565b60006020820190508181036000830152614438816143fc565b9050919050565b600061444a826133b1565b91507f8000000000000000000000000000000000000000000000000000000000000000820361447c5761447b613b7f565b5b816000039050919050565b600081905092915050565b50565b60006144a2600083614487565b91506144ad82614492565b600082019050919050565b60006144c382614495565b9150819050919050565b7f5f7472616e736665723a20455448207472616e73666572206661696c65640000600082015250565b6000614503601e83613a02565b915061450e826144cd565b602082019050919050565b60006020820190508181036000830152614532816144f6565b9050919050565b7f45786368616e6765526174657300000000000000000000000000000000000000815250565b7f4d617267696e426173653a20436f756c64206e6f74206765742045786368616e60008201527f6765526174657300000000000000000000000000000000000000000000000000602082015250565b60006145bb602783613a02565b91506145c68261455f565b604082019050919050565b60006040820190506145e560008301614539565b81810360208301526145f6816145ae565b9050919050565b600067ffffffffffffffff82169050919050565b61461a816145fd565b811461462557600080fd5b50565b60008151905061463781614611565b92915050565b6146468161312a565b811461465157600080fd5b50565b6000815190506146638161463d565b92915050565b61467281613155565b811461467d57600080fd5b50565b60008151905061468f81614669565b92915050565b600080600080600060a086880312156146b1576146b06130ae565b5b60006146bf88828901614628565b95505060206146d088828901614628565b94505060406146e188828901614654565b93505060606146f288828901614654565b925050608061470388828901614680565b9150509295509295909350565b600060408201905061472560008301856136f2565b614732602083018461311b565b9392505050565b600060208201905061474e60008301846136f2565b92915050565b7f4e487b7100000000000000000000000000000000000000000000000000000000600052603160045260246000fd5b7f5361666545524332303a204552433230206f7065726174696f6e20646964206e60008201527f6f74207375636365656400000000000000000000000000000000000000000000602082015250565b60006147df602a83613a02565b91506147ea82614783565b604082019050919050565b6000602082019050818103600083015261480e816147d2565b9050919050565b7f416464726573733a20696e73756666696369656e742062616c616e636520666f60008201527f722063616c6c0000000000000000000000000000000000000000000000000000602082015250565b6000614871602683613a02565b915061487c82614815565b604082019050919050565b600060208201905081810360008301526148a081614864565b9050919050565b7f416464726573733a2063616c6c20746f206e6f6e2d636f6e7472616374000000600082015250565b60006148dd601d83613a02565b91506148e8826148a7565b602082019050919050565b6000602082019050818103600083015261490c816148d0565b9050919050565b600061491e8261363a565b6149288185614487565b9350614938818560208601613656565b80840191505092915050565b60006149508284614913565b915081905092915050565b600081519050919050565b60006149718261495b565b61497b8185613a02565b935061498b818560208601613656565b614994816132ef565b840191505092915050565b600060208201905081810360008301526149b98184614966565b90509291505056fea2646970667358221220fc1f8634f388087d741663d5c2f184c593c4f3b822f4bda2da3e54d77d19f8cf64736f6c634300080d0033",
    "devdoc": {
        "author": "JaredBorders (jaredborders@proton.me), JChiaramonte7 (jeremy@bytecode.llc)",
        "kind": "dev",
        "methods": {
            "constructor": {
                "params": {
                    "_addressResolver": ": contract address for synthetix address resolver",
                    "_marginAsset": ": token contract address used for account margin",
                    "_marginBaseSettings": ": contract address for MarginBase account settings",
                    "_ops": ": contract address for gelato ops -- must be payable",
                    "_version": ": version of contract"
                }
            },
            "newAccount()": {
                "details": "this contract is the initial owner of cloned MarginBase, but ownership is transferred after successful initialization"
            }
        },
        "title": "Kwenta MarginBase Factory",
        "version": 1
    },
    "userdoc": {
        "kind": "user",
        "methods": {
            "addressResolver()": {
                "notice": "synthetix address resolver"
            },
            "constructor": {
                "notice": "deploy MarginBase implementation to later be cloned"
            },
            "implementation()": {
                "notice": "MarginBase contract acting as user's account"
            },
            "marginAsset()": {
                "notice": "ERC20 token used to interact with markets"
            },
            "marginBaseSettings()": {
                "notice": "settings for MarginBase accounts"
            },
            "newAccount()": {
                "notice": "clone MarginBase (i.e. create new account for user)"
            },
            "ops()": {
                "notice": "gelato ops"
            }
        },
        "notice": "Factory which enables deploying a MarginBase account for any user ",
        "version": 1
    },
    "storageLayout": {
        "storage": [
            {
                "astId": 733,
                "contract": "contracts/MarginAccountFactory.sol:MarginAccountFactory",
                "label": "version",
                "offset": 0,
                "slot": "0",
                "type": "t_string_storage"
            },
            {
                "astId": 747,
                "contract": "contracts/MarginAccountFactory.sol:MarginAccountFactory",
                "label": "marginBaseSettings",
                "offset": 0,
                "slot": "1",
                "type": "t_address"
            }
        ],
        "types": {
            "t_address": {
                "encoding": "inplace",
                "label": "address",
                "numberOfBytes": "20"
            },
            "t_string_storage": {
                "encoding": "bytes",
                "label": "string",
                "numberOfBytes": "32"
            }
        }
    }
}